:020000040800F2
:1000000000280020F9180008891800088F18000837
:10001000951800089B180008A118000800000000AF
:10002000000000000000000000000000A718000809
:10003000B318000800000000BF180008CB18000823
:100040004119000841190008411900084119000828
:100050004119000841190008411900084119000818
:100060004119000841190008411900084119000808
:1000700041190008411900084119000841190008F8
:1000800041190008411900084119000841190008E8
:1000900041190008411900084119000841190008D8
:1000A00041190008411900084119000841190008C8
:1000B000D918000841190008000000004119000883
:1000C000411900080000000000000000411900086C
:1000D000000000004119000841190008000000005C
:1000E00041190008411900084119000800000000EA
:1000F0000000000000000000000000000000000000
:0C01000000000000000000005FF808F1A3
:1001100010B5054C237833B9044B13B10448AFF341
:1001200000800123237010BDB800002000000000F3
:100130007C3D000808B5034B1BB103490348AFF3EE
:10014000008008BD00000000BC0000207C3D0008CD
:1001500081F0004102E000BF83F0004330B54FEA78
:1001600041044FEA430594EA050F08BF90EA020FE5
:100170001FBF54EA000C55EA020C7FEA645C7FEA78
:10018000655C00F0E2804FEA5454D4EB5555B8BF9B
:100190006D420CDD2C4480EA020281EA030382EA0C
:1001A000000083EA010180EA020281EA0303362D9E
:1001B00088BF30BD11F0004F4FEA01314FF4801C71
:1001C0004CEA113102D0404261EB410113F0004F83
:1001D0004FEA03334CEA133302D0524263EB43033A
:1001E00094EA050F00F0A780A4F10104D5F1200ED8
:1001F0000DDB02FA0EFC22FA05F2801841F1000133
:1002000003FA0EF2801843FA05F359410EE0A5F106
:1002100020050EF1200E012A03FA0EFC28BF4CF037
:10022000020C43FA05F3C01851EBE37101F00045ED
:1002300007D54FF0000EDCF1000C7EEB00006EEBFA
:100240000101B1F5801F1BD3B1F5001F0CD3490884
:100250005FEA30004FEA3C0C04F101044FEA4452DB
:1002600012F5800F80F09A80BCF1004F08BF5FEA62
:10027000500C50F1000041EB045141EA050130BD42
:100280005FEA4C0C404141EB0101013C28BFB1F554
:10029000801FE9D291F0000F04BF01460020B1FA9F
:1002A00081F308BF2033A3F10B03B3F120020CDA72
:1002B0000C3208DD02F1140CC2F10C0201FA0CF050
:1002C00021FA02F10CE002F11402D8BFC2F1200CB5
:1002D00001FA02F120FA0CFCDCBF41EA0C0190406B
:1002E000E41AA2BF01EB0451294330BD6FEA0404B4
:1002F0001F3C1CDA0C340EDC04F11404C4F120029F
:1003000020FA04F001FA02F340EA030021FA04F3B0
:1003100045EA030130BDC4F10C04C4F1200220FA07
:1003200002F001FA04F340EA0300294630BD21FA45
:1003300004F0294630BD94F0000F83F4801306BF0B
:1003400081F480110134013D4EE77FEA645C18BFFF
:100350007FEA655C29D094EA050F08BF90EA020F96
:1003600005D054EA000C04BF1946104630BD91EA8E
:10037000030F1EBF0021002030BD5FEA545C05D191
:100380004000494128BF41F0004130BD14F58004D0
:100390003CBF01F5801130BD01F0004545F0FE4144
:1003A00041F470014FF0000030BD7FEA645C1ABF79
:1003B000194610467FEA655C1CBF0B46024650EAB0
:1003C000013406BF52EA033591EA030F41F40021DC
:1003D00030BD00BF90F0000F04BF0021704730B562
:1003E0004FF4806404F132044FF000054FF0000137
:1003F00050E700BF90F0000F04BF0021704730B5F8
:100400004FF4806404F1320410F0004548BF4042CC
:100410004FF000013EE700BF42004FEAE2014FEA21
:1004200031014FEA02701FBF12F07F4393F07F4FFC
:1004300081F06051704732F07F4208BF704793F0FF
:100440007F4F04BF41F40021704730B54FF4607412
:1004500001F0004521F000411CE700BF50EA010215
:1004600008BF704730B54FF000050AE050EA0102BE
:1004700008BF704730B511F0004502D5404261EB2E
:1004800041014FF4806404F132045FEA915C3FF46F
:10049000D8AE4FF003025FEADC0C18BF03325FEA0C
:1004A000DC0C18BF033202EBDC02C2F1200300FABD
:1004B00003FC20FA02F001FA03FE40EA0E0021FAE2
:1004C00002F11444BDE600BF70B54FF0FF0C4CF4D0
:1004D000E06C1CEA11541DBF1CEA135594EA0C0F82
:1004E00095EA0C0F00F0DEF82C4481EA030621EABD
:1004F0004C5123EA4C5350EA013518BF52EA0335F8
:1005000041F4801143F4801338D0A0FB02CE4FF0A9
:100510000005E1FB02E506F00042E0FB03E54FF0D9
:100520000006E1FB03569CF0000F18BF4EF0010ED1
:10053000A4F1FF04B6F5007F64F5407404D25FEACD
:100540004E0E6D4146EB060642EAC62141EA555180
:100550004FEAC52040EA5E504FEACE2EB4F1FD0CC2
:1005600088BFBCF5E06F1ED8BEF1004F08BF5FEA40
:10057000500E50F1000041EB045170BD06F00046F2
:1005800046EA010140EA020081EA0301B4EB5C049F
:10059000C2BFD4EB0C0541EA045170BD41F4801197
:1005A0004FF0000E013C00F3AB8014F1360FDEBFBC
:1005B000002001F0004170BDC4F10004203C35DA98
:1005C0000C341BDC04F11404C4F1200500FA05F31B
:1005D00020FA04F001FA05F240EA020001F00042BC
:1005E00021F0004110EBD37021FA04F642EB060132
:1005F0005EEA430E08BF20EAD37070BDC4F10C045C
:10060000C4F1200500FA04F320FA05F001FA04F21F
:1006100040EA020001F0004110EBD37041F100010B
:100620005EEA430E08BF20EAD37070BDC4F1200516
:1006300000FA05F24EEA020E20FA04F301FA05F27E
:1006400043EA020321FA04F001F0004121FA04F226
:1006500020EA020000EBD3705EEA430E08BF20EAF6
:10066000D37070BD94F0000F0FD101F00046400030
:1006700041EB010111F4801F08BF013CF7D041EAB2
:10068000060195F0000F18BF704703F000465200B6
:1006900043EB030313F4801F08BF013DF7D043EA87
:1006A0000603704794EA0C0F0CEA135518BF95EA3D
:1006B0000C0F0CD050EA410618BF52EA4306D1D1C4
:1006C00081EA030101F000414FF0000070BD50EAE3
:1006D000410606BF1046194652EA430619D094EA6D
:1006E0000C0F02D150EA013613D195EA0C0F05D157
:1006F00052EA03361CBF104619460AD181EA0301AB
:1007000001F0004141F0FE4141F470014FF0000062
:1007100070BD41F0FE4141F4780170BD70B54FF0FD
:10072000FF0C4CF4E06C1CEA11541DBF1CEA13557D
:1007300094EA0C0F95EA0C0F00F0A7F8A4EB05045F
:1007400081EA030E52EA03354FEA013100F0888056
:100750004FEA03334FF0805545EA131343EA12631F
:100760004FEA022245EA111545EA10654FEA0026D4
:100770000EF000419D4208BF964244F1FD0404F58D
:10078000407402D25B084FEA3202B61A65EB0305E9
:100790005B084FEA32024FF480104FF4002CB6EBA6
:1007A000020E75EB030E22BFB61A754640EA0C0026
:1007B0005B084FEA3202B6EB020E75EB030E22BF66
:1007C000B61A754640EA5C005B084FEA3202B6EBA7
:1007D000020E75EB030E22BFB61A754640EA9C0066
:1007E0005B084FEA3202B6EB020E75EB030E22BF36
:1007F000B61A754640EADC0055EA060E18D04FEAF4
:10080000051545EA16754FEA06164FEAC30343EA93
:1008100052734FEAC2025FEA1C1CC0D111F4801F60
:100820000BD141EA00014FF000004FF0004CB6E759
:1008300011F4801F04BF01430020B4F1FD0C88BFF8
:10084000BCF5E06F3FF6AFAEB5EB030C04BFB6EB03
:10085000020C5FEA500C50F1000041EB045170BDF6
:100860000EF0004E4EEA113114EB5C04C2BFD4EB23
:100870000C0541EA045170BD41F480114FF0000EA7
:10088000013C90E645EA060E8DE60CEA135594EA23
:100890000C0F08BF95EA0C0F3FF43BAF94EA0C0F26
:1008A0000AD150EA01347FF434AF95EA0C0F7FF49B
:1008B00025AF104619462CE795EA0C0F06D152EAEF
:1008C00003353FF4FDAE1046194622E750EA4106D3
:1008D00018BF52EA43067FF4C5AE50EA41047FF4E4
:1008E0000DAF52EA43057FF4EBAE12E74FF0FF3C49
:1008F00006E000BF4FF0010C02E000BF4FF0010C1A
:100900004DF804CD4FEA410C7FEA6C5C4FEA430C92
:1009100018BF7FEA6C5C1BD001B050EA410C0CBFE1
:1009200052EA430C91EA030F02BF90EA020F002043
:10093000704710F1000F91EA030F58BF994208BFAA
:1009400090422CBFD8176FEAE37040F00100704767
:100950004FEA410C7FEA6C5C02D150EA013C07D1BE
:100960004FEA430C7FEA6C5CD6D152EA033CD3D009
:100970005DF8040B704700BF8446104662468C4603
:100980001946634600E000BF01B5FFF7B7FF002836
:1009900048BF10F1000F01BD4DF808EDFFF7F4FF5F
:1009A0000CBF012000205DF808FB00BF4DF808EDEA
:1009B000FFF7EAFF34BF012000205DF808FB00BF0D
:1009C0004DF808EDFFF7E0FF94BF012000205DF82F
:1009D00008FB00BF4DF808EDFFF7CEFF94BF0120E4
:1009E00000205DF808FB00BF4DF808EDFFF7C4FFDD
:1009F00034BF012000205DF808FB00BF4FEA410C26
:100A00007FEA6C5C02D150EA013C0AD14FEA430C08
:100A10007FEA6C5C02D152EA033C02D14FF0000045
:100A200070474FF0010070474FEA410212F5001283
:100A300015D211D56FF47873B3EB625212D94FEA25
:100A4000C12343F0004343EA505311F0004F23FA0F
:100A500002F018BF404270474FF00000704750EA64
:100A6000013005D111F0004008BF6FF00040704721
:100A70004FF00000704700BF80B582B000AF002388
:100A80007B607DE0434A7B6813441978424A7B6867
:100A900013440A461A70414A7B68134419783D4A48
:100AA0007B6813440A461A703D4A7B6832F813305B
:100AB00019463C4801F032FA03461946374A7B682A
:100AC00013440A461A70354A7B6813441A78314930
:100AD0007B680B441B789A424FD1304A7B681344A1
:100AE0001A782D497B680B441B789A4245D12E4ACF
:100AF0007B6813441A7829497B680B441B789A4217
:100B000019D0264A7B6813441978274A7B68134416
:100B10000A461A70244A7B6813441B78002B2CD198
:100B2000224A7B68134401221A70214A7B6864219F
:100B300022F8131021E01C4A7B6813441B78002B19
:100B40001BD11B4A7B6832F913309BB2013B9BB22D
:100B500019B2174A7B6822F81310154A7B6832F9DC
:100B60001330002B09DC114A7B68134401221A70F0
:100B70000F4A7B68322122F813107B6801337B60B7
:100B80007B68032B7FF77EAF00BF00BF0837BD46F1
:100B900080BD00BFDC000020E0000020D800002065
:100BA00000000020000C0140D4000020E4000020E0
:100BB000E800002080B483B000AF78607B68002B31
:100BC00002DB7B68032B01DD00230DE0094A7B6813
:100BD00013441B78012B06D1064A7B68134400227C
:100BE0001A70012300E0002318460C37BD4680BC74
:100BF000704700BFE400002080B500AF00F0A2FE07
:100C000000F012F800F098F800F04AF8054801F0FA
:100C1000E3FD00F005FA00F02BFB00F029FA00F0EC
:100C2000C3FBFAE7F000002080B590B000AF07F1F9
:100C3000180328220021184602F066F93B1D002205
:100C40001A605A609A60DA601A610223BB6101235C
:100C5000BB621023FB6200237B6307F11803184675
:100C600001F08CF90346002B01D000F0D3F80F23DC
:100C70007B600023BB600023FB6000233B610023FB
:100C80007B613B1D0021184601F0FAFB0346002B57
:100C900001D000F0BFF800BF4037BD4680BD000066
:100CA00080B586B000AF07F1080300221A605A60D1
:100CB0009A60DA603B4600221A605A601D4B4FF082
:100CC00080421A601B4B41F63F725A60194B00225A
:100CD0009A60184B0922DA60164B00221A61154BF4
:100CE00000229A61134801F027FD0346002B01D032
:100CF00000F090F84FF48053BB6007F108031946E9
:100D00000C4801F0BDFE0346002B01D000F082F834
:100D100000233B6000237B603B461946054802F0F8
:100D200089F80346002B01D000F074F800BF183793
:100D3000BD4680BDF000002080B586B000AF07F151
:100D4000080300221A605A609A60DA60284B9B6997
:100D5000274A43F008039361254B9B6903F008037E
:100D60007B607B68224B9B69214A43F004039361BB
:100D70001F4B9B6903F004033B603B68002243F672
:100D8000F0711C4801F0E1F800224FF47F411A484D
:100D900001F0DBF80F23BB600023FB6001233B6104
:100DA00007F108031946134800F03CFF43F6F073BF
:100DB000BB600123FB6001233B6102237B6107F1E0
:100DC000080319460B4800F02DFF4FF47F43BB602A
:100DD0000123FB6001233B6102237B6107F10803D0
:100DE0001946054800F01EFF00BF1837BD4680BDFC
:100DF00000100240000C01400008014080B582B0A4
:100E000000AF786000F0C6FCFFF736FE00BF083781
:100E1000BD4680BD80B400AF72B600BFFEE70000E3
:100E200090B585B000AF786039607B68002BC0F268
:100E3000DF807B68012B00F3DB803B68002BC0F276
:100E4000D9803B68012B00F3D5806D4A7B6852F84E
:100E500023403B68C3F101031846FFF7CBFA024673
:100E60000B464FF00000674902F080F802460B463F
:100E700010461946FFF7D8FD034694FBF3F2624B88
:100E800083FB02139910D317C91A0B469B000B441E
:100E90005B00D31AFB60FB68002B15DBFB68092B9A
:100EA00012DC5A4BDB685A49FA6831F812201202F8
:100EB00013435849FA6831F812201202D2431146FE
:100EC000524A0B40D3600DE0504BDB68504A928A87
:100ED000120213434F4A928A1202D24311464B4ADE
:100EE0000B40D3607B685A003B681344032B00F22D
:100EF000838001A252F823F0090F0008430F000875
:100F00007D0F0008B70F0008434B1B8800221946CD
:100F1000424801F01AF8404B5B88012219463F48CD
:100F200001F013F83C4B9B88012219463B4801F025
:100F30000CF8394BDB8801221946384801F005F8D6
:100F40005BE0354B1B8801221946344800F0FDFF59
:100F5000314B5B8800221946304800F0F6FF2E4BDB
:100F60009B88012219462D4800F0EFFF2A4BDB88B1
:100F700001221946294800F0E8FF3EE0264B1B8875
:100F800001221946254800F0E0FF234B5B8801222F
:100F90001946224800F0D9FF1F4B9B8800221946B2
:100FA0001E4800F0D2FF1C4BDB88012219461B486B
:100FB00000F0CBFF21E0184B1B880122194617488F
:100FC00000F0C3FF144B5B8801221946134800F060
:100FD000BCFF114B9B8801221946104800F0B5FF59
:100FE0000D4BDB88002219460C4800F0AEFF04E0F0
:100FF00000BF02E000BF00E000BF1437BD4690BD57
:101000003801002000002440676666660008014041
:10101000280000201000002008000020000C0140E3
:1010200080B500AF0021192000F094FB0E4B1B8807
:10103000012219460D4800F088FF0B4B5B88012206
:1010400019460A4800F081FF074B9B880122194688
:10105000064800F07AFF044BDB880122194603485A
:1010600000F073FF00BF80BD08000020000C0140AD
:1010700080B500AF144B1B68144A1268114618461D
:10108000FFF7CEFE124B1B78012B1BD1002119203C
:1010900000F060FB0D4B1B6801330C4A13600B4BD7
:1010A0001B68012B07DD094B00221A60064B1B68E9
:1010B0000133054A1360044B1B68012B02DD024B10
:1010C00000221A6000BF80BD4001002044010020C2
:1010D0005801002080B500AF094B05221A60094B6A
:1010E00002221A60084B03221A600021002000F03F
:1010F0000DF80121002000F009F800BF80BD00BFFD
:10110000480100204C0100205001002080B582B031
:1011100000AF03463960FB713B68002BC0F298803A
:101120003B68012B00F39480FB79032B00F2928043
:1011300001A252F823F000BF491100088B110008EA
:10114000CD1100080F120008444A3B6832F81330F2
:1011500001221946424800F0F8FE424A3B6832F844
:101160001330012219463E4800F0EFFE3E4A3B682C
:1011700032F8133001221946394800F0E6FE3B4AA6
:101180003B68134400221A7065E0344A3B6832F829
:10119000133000221946324800F0D7FE314A3B682E
:1011A00032F81330012219462D4800F0CEFE2E4AA7
:1011B0003B6832F8133001221946294800F0C5FE79
:1011C0002A4A3B68134401221A7044E0234A3B68D0
:1011D00032F8133001221946214800F0B6FE214AA8
:1011E0003B6832F81330002219461D4800F0ADFE6E
:1011F0001D4A3B6832F8133001221946184800F0A6
:10120000A4FE1A4A3B68134402221A7023E0134AD0
:101210003B6832F8133001221946114800F095FE60
:10122000104A3B6832F81330012219460C4800F08E
:101230008CFE0D4A3B6832F81330002219460848EC
:1012400000F083FE094A3B68134403221A7002E04F
:1012500000BF00E000BF0837BD4680BD4000002051
:10126000000C0140440000204800002054010020F0
:1012700080B500AFFFF72EFF002000F003F800BF9D
:1012800080BD000080B582B000AF0346FB71FB79E2
:10129000032B7AD801A252F823F000BFAD12000848
:1012A000011300082F1300085D13000801216420BA
:1012B00000F050FA374B1B68642202FB03F3022153
:1012C000184600F047FA344B1B68642202FB03F314
:1012D0000321184600F03EFA2E4B1B682F4A13607C
:1012E0002D4B1B682D4A536000210120FFF70EFF94
:1012F00001210320FFF70AFF294B00221A7045E065
:101300000121192000F026FA244B02221A60214BF9
:101310001B68224A536000210020FFF7F7FE0121DD
:101320000020FFF7F3FE1E4B01221A702EE0012170
:10133000192000F00FFA194B03221A60194B1B6891
:10134000164A536000210020FFF7E0FE0121002033
:10135000FFF7DCFE124B02221A7017E00121192060
:1013600000F0F8F90D4B04221A600B4B1B680B4A76
:10137000536000210020FFF7C9FE01210020FFF784
:10138000C5FE074B03221A7000E000BF00BF0837FC
:10139000BD4680BD480100205001002038010020DA
:1013A000560100204C01002080B500AF9E4B1B78F9
:1013B000032B00F2BB8101A252F823F0CD130008E9
:1013C0003B150008F7150008CF160008974B5B780F
:1013D000012B1BD10121642000F0BCF9944B1B6848
:1013E000013B934A1360924B1B68002B02DA904B2F
:1013F00000221A608E4B5B68013B8D4A53608C4B18
:101400005B68002B02DA8A4B00225A60874B9B787C
:10141000012B41D1874B1B78032B2AD0032B3ADCBD
:10142000012B02D0022B12D035E0834B1B686422C3
:1014300002FB03F30221184600F08CF97E4B1B6877
:101440007B4A136000210320FFF760FE24E07B4B02
:101450001B68642202FB03F30221184600F07AF9AC
:10146000764B1B68724A136000210120FFF74EFE85
:1014700012E0734B1B68642202FB03F3022118463F
:1014800000F068F96E4B1B68694A13600021022066
:10149000FFF73CFE00E000BF644BDB78012B41D13D
:1014A000644B5B78032B2AD0032B3ADC012B02D050
:1014B000022B12D035E0604B1B68642202FB03F361
:1014C0000321184600F046F95B4B1B68584A5360ED
:1014D00001210320FFF71AFE24E0584B1B68642209
:1014E00002FB03F30321184600F034F9534B1B6849
:1014F0004F4A536001210120FFF708FE12E0504BD4
:101500001B68642202FB03F30321184600F022F952
:101510004B4B1B68464A536001210220FFF7F6FD42
:1015200000E000BF0020FFF745FB0346002B00F062
:10153000FF800120FFF7A6FEFAE03C4B5B78012B11
:1015400020D13C4B1B78002B02D0012B0DD019E091
:101550000121192000F0FEF800210120FFF7D6FD3F
:1015600001210120FFF7D2FD0CE00121192000F03C
:10157000F1F800210020FFF7C9FD01210020FFF74D
:10158000C5FD00BF0020FFF715FB0346002B02D06E
:101590000220FFF777FE0120FFF70CFB0346002B2C
:1015A0000BD0234B5B680133214A5360204B5B68AF
:1015B000632B02DD1E4B00225A600220FFF7FAFA6D
:1015C0000346002B0BD01A4B5B68013B184A536053
:1015D000174B5B68002B02DA154B63225A6003201D
:1015E000FFF7E8FA0346002B00F0A480104B5B687D
:1015F000124A13609EE00D4B5B78012B2FD10D4BEF
:101600001B78002B02D0022B1CD028E001211920CE
:1016100000F0A0F800210220FFF778FD0121022050
:10162000FFF774FD1BE000BF5601002058010020A9
:101630003801002054010020500100204801002002
:101640004C0100200121192000F084F80021002025
:10165000FFF75CFD01210020FFF758FD00BF0020CF
:10166000FFF7A8FA0346002B02D00320FFF70AFE7B
:101670000120FFF79FFA0346002B0BD0314B5B682C
:101680000133304A53602F4B5B68632B02DD2D4BD7
:1016900000225A600220FFF78DFA0346002B0BD080
:1016A000284B5B68013B274A5360264B5B68002B45
:1016B00002DA244B63225A600320FFF77BFA0346C9
:1016C000002B39D01F4B5B681F4A136034E01F4B5F
:1016D0005B78012B20D11E4B1B78002B02D0032BF3
:1016E0000DD019E00121192000F034F80021032069
:1016F000FFF70CFD01210320FFF708FD0CE001219D
:10170000192000F027F800210020FFF7FFFC01213D
:101710000020FFF7FBFC00BF0020FFF74BFA034659
:10172000002B0BD00020FFF7ADFD07E000BF06E067
:1017300000BF04E000BF02E000BF00E000BF00BF48
:1017400080BD00BF380100204C010020580100205E
:101750005401002080B483B000AF786039603B68EA
:10176000002B0DDB3B68032B0ADC7B6819B2074AB0
:101770003B6822F81310064A3B68134400221A7093
:1017800000BF0C37BD4680BC704700BF5C01002025
:101790005801002080B483B000AF00237B601FE0BD
:1017A000144A7B6832F91330002B16DD114A7B682E
:1017B00032F913309BB2013B9BB219B20D4A7B68E0
:1017C00022F813100B4A7B6832F91330002B04DC2B
:1017D000094A7B68134401221A707B6801337B60DD
:1017E0007B68032BDCDD00BF00BF0C37BD4680BC2F
:1017F000704700BF5C0100205801002080B483B016
:1018000000AF0E4B9B690D4A43F0010393610B4BF4
:101810009B6903F001037B607B68084BDB69074A27
:1018200043F08053D361054BDB6903F080533B6089
:101830003B6800BF0C37BD4680BC704700100240BB
:1018400080B584B000AF78607B681B68B3F1804FCF
:1018500013D10C4BDB690B4A43F00103D361094BF5
:10186000DB6903F00103FB60FB68002200211C2000
:1018700000F0A1F91C2000F0BAF900BF1037BD46F6
:1018800080BD00BF0010024080B400AFFEE780B40E
:1018900000AFFEE780B400AFFEE780B400AFFEE724
:1018A00080B400AFFEE780B400AF00BFBD4680BC8F
:1018B000704780B400AF00BFBD4680BC704780B4A5
:1018C00000AF00BFBD4680BC704780B500AF00F0E0
:1018D0007FF800BF80BD000080B500AF024800F077
:1018E000C7FF00BF80BD00BFF000002080B400AF84
:1018F00000BFBD4680BC7047FFF7F8FF0B480C499E
:101900000C4A002302E0D458C4500433C4188C425B
:10191000F9D3094A094C002301E013600432A242C2
:10192000FBD301F0FFFAFFF767F9704700000020D2
:10193000B8000020F83D0008B8000020A0020020F8
:10194000FEE7000080B500AF084B1B68074A43F074
:1019500010031360032000F023F90F2000F008F8B3
:10196000FFF74CFF0023184680BD00BF0020024057
:1019700080B582B000AF7860124B1A68124B1B78AA
:1019800019464FF47A73B3FBF1F3B2FBF3F3184645
:1019900000F03BF90346002B01D001230EE07B68E9
:1019A0000F2B0AD8002279684FF0FF3000F003F9BE
:1019B000064A7B681360002300E0012318460837BD
:1019C000BD4680BD4C000020540000205000002087
:1019D00080B400AF054B1B781A46054B1B681344B7
:1019E000034A136000BFBD4680BC7047540000200E
:1019F0006401002080B400AF024B1B681846BD464E
:101A000080BC70476401002080B485B000AF78606E
:101A10007B6803F00703FB600C4BDB68BB60BA68B4
:101A20004FF6FF031340BB60FB681A02BB68134309
:101A300043F0BF6343F40033BB60044ABB68D36028
:101A400000BF1437BD4680BC704700BF00ED00E00A
:101A500080B400AF044BDB681B0A03F00703184691
:101A6000BD4680BC704700BF00ED00E080B483B08D
:101A700000AF0346FB7197F90730002B0BDBFB79B6
:101A800003F01F02064997F907305B09012000FAAD
:101A900002F241F8232000BF0C37BD4680BC7047DE
:101AA00000E100E080B483B000AF03463960FB7111
:101AB00097F90730002B0ADB3B68DAB20C4997F93B
:101AC00007301201D2B20B4483F800230AE03B68CE
:101AD000DAB20849FB7903F00F03043B1201D2B2DA
:101AE0000B441A7600BF0C37BD4680BC704700BF60
:101AF00000E100E000ED00E080B489B000AFF860E4
:101B0000B9607A60FB6803F00703FB61FB69C3F10E
:101B10000703042B28BF0423BB61FB690433062B96
:101B200002D9FB69033B00E000237B614FF0FF32E9
:101B3000BB6902FA03F3DA43BB681A407B699A4037
:101B40004FF0FF317B6901FA03F3D9437B680B4007
:101B5000134318462437BD4680BC704780B582B019
:101B600000AF78607B68013BB3F1807F01D3012334
:101B70000FE00A4A7B68013B53600F214FF0FF30B2
:101B8000FFF790FF054B00229A60044B07221A6072
:101B9000002318460837BD4680BD00BF10E000E0B6
:101BA00080B582B000AF78607868FFF72DFF00BF86
:101BB0000837BD4680BD80B586B000AF0346B9602A
:101BC0007A60FB7300237B61FFF742FF78617A68DC
:101BD000B9687869FFF790FF024697F90F30114610
:101BE0001846FFF75FFF00BF1837BD4680BD80B5C0
:101BF00082B000AF0346FB7197F907301846FFF734
:101C000035FF00BF0837BD4680BD80B582B000AF4C
:101C100078607868FFF7A2FF034618460837BD468C
:101C200080BD000080B48BB000AF786039600023C5
:101C30007B6200233B6261E101227B6A02FA03F3CB
:101C4000FB613B681B68FA691340BB61BA69FB69B9
:101C50009A4240F050813B685B68974A93425ED05D
:101C6000954A934275D8954A934258D0934A9342E5
:101C70006FD8934A934252D0914A934269D8914A7D
:101C800093424CD08F4A934263D88F4A934246D0B6
:101C90008D4A93425DD8122B2AD8122B59D801A213
:101CA00052F823F01F1D0008F91C00080B1D000846
:101CB0004D1D0008531D0008531D0008531D00084A
:101CC000531D0008531D0008531D0008531D000834
:101CD000531D0008531D0008531D0008531D000824
:101CE000531D0008531D0008011D0008151D0008A4
:101CF000764A934213D02CE03B68DB683B6229E0D4
:101D00003B68DB6804333B6224E03B68DB680833F4
:101D10003B621FE03B68DB680C333B621AE03B68C8
:101D20009B68002B02D104233B6213E03B689B6855
:101D3000012B05D108233B627B68FA691A6109E02F
:101D400008233B627B68FA695A6103E000233B6227
:101D500000E000BFBB69FF2B01D87B6801E07B6816
:101D600004337B61BB69FF2B02D87B6A9B0002E0D6
:101D70007B6A083B9B003B617B691A680F213B69CA
:101D800001FA03F3DB431A40396A3B6901FA03F3B2
:101D90001A437B691A603B685B6803F08053002B31
:101DA00000F0A9804A4B9B69494A43F001039361C3
:101DB000474B9B6903F00103BB60BB68454A7B6AE4
:101DC0009B08023352F82330FB607B6A03F0030365
:101DD0009B000F2202FA03F3DB43FA681340FB6017
:101DE0007B683D4A93420DD07B683C4A934207D0C2
:101DF0007B683B4A934201D1022304E0032302E0C3
:101E0000012300E000237A6A02F00302920093406B
:101E1000FA681343FB602F497B6A9B080233FA6818
:101E200041F823203B685B6803F48013002B06D045
:101E30002C4B9A682B49BB6913438B6006E0294BF6
:101E40009A68BB69DB43274913408B603B685B683A
:101E500003F40013002B06D0224BDA682149BB693A
:101E60001343CB6006E01F4BDA68BB69DB431D49B7
:101E70001340CB603B685B6803F40033002B06D053
:101E8000184B5A681749BB6913434B6006E0154B62
:101E90005A68BB69DB43134913404B603B685B687E
:101EA00003F48033002B1FD00E4B1A680D49BB6919
:101EB00013430B601FE000BF000032100000311020
:101EC000000022100000211000001210000011106C
:101ED000001002400000014000080140000C0140D9
:101EE00000100140000401400B4B1A68BB69DB4342
:101EF000094913400B607B6A01337B623B681A68B7
:101F00007B6A22FA03F3002B7FF496AE00BF00BF7A
:101F10002C37BD4680BC70470004014080B485B0BA
:101F200000AF78600B467B807B689A687B881340A3
:101F3000002B02D00123FB7301E00023FB73FB7B2A
:101F400018461437BD4680BC704780B483B000AFDC
:101F500078600B467B8013467B707B78002B03D028
:101F60007A887B681A6103E07B881A047B681A61AF
:101F700000BF0C37BD4680BC7047000080B586B0FE
:101F800000AF78607B68002B01D1012372E27B688F
:101F90001B6803F00103002B00F08780924B5B6805
:101FA00003F00C03042B0CD08F4B5B6803F00C0385
:101FB000082B12D18C4B5B6803F48033B3F5803F60
:101FC0000BD1894B1B6803F40033002B6CD07B686A
:101FD0005B68002B68D101234CE27B685B68B3F53A
:101FE000803F06D1804B1B687F4A43F480331360E7
:101FF0002EE07B685B68002B0CD17B4B1B687A4A18
:1020000023F480331360784B1B68774A23F48023D2
:1020100013601DE07B685B68B3F5A02F0CD1724B99
:102020001B68714A43F4802313606F4B1B686E4A30
:1020300043F4803313600BE06B4B1B686A4A23F454
:1020400080331360684B1B68674A23F48023136056
:102050007B685B68002B13D0FFF7CCFC386108E08D
:10206000FFF7C8FC02463B69D31A642B01D903234E
:1020700000E25D4B1B6803F40033002BF0D014E04A
:10208000FFF7B8FC386108E0FFF7B4FC02463B6993
:10209000D31A642B01D90323ECE1534B1B6803F4DF
:1020A0000033002BF0D100E000BF7B681B6803F019
:1020B0000203002B63D04C4B5B6803F00C03002B36
:1020C0000BD0494B5B6803F00C03082B1CD1464B2B
:1020D0005B6803F48033002B16D1434B1B6803F07D
:1020E0000203002B05D07B681B69012B01D0012363
:1020F000C0E13D4B1B6823F0F8027B685B69DB00A5
:10210000394913430B603AE07B681B69002B20D0F0
:10211000364B01221A60FFF76DFC386108E0FFF7CB
:1021200069FC02463B69D31A022B01D90323A1E1C2
:102130002D4B1B6803F00203002BF0D02A4B1B68C9
:1021400023F0F8027B685B69DB00274913430B60CF
:1021500015E0264B00221A60FFF74CFC386108E0BE
:10216000FFF748FC02463B69D31A022B01D903232F
:1021700080E11D4B1B6803F00203002BF0D17B684C
:102180001B6803F00803002B3AD07B689B69002B87
:1021900019D0174B01221A60FFF72CFC386108E0B8
:1021A000FFF728FC02463B69D31A022B01D903230F
:1021B00060E10D4B5B6A03F00203002BF0D00120BD
:1021C00000F09CFA1CE00A4B00221A60FFF712FC98
:1021D00038610FE0FFF70EFC02463B69D31A022B71
:1021E00008D9032346E100BF00100240000042422C
:1021F00080044242924B5B6A03F00203002BE9D158
:102200007B681B6803F00403002B00F0A68000230A
:10221000FB758B4BDB6903F08053002B0DD1884B92
:10222000DB69874A43F08053D361854BDB6903F058
:102230008053BB60BB680123FB75824B1B6803F4B2
:102240008073002B18D17F4B1B687E4A43F4807348
:102250001360FFF7CFFB386108E0FFF7CBFB0246C6
:102260003B69D31A642B01D9032303E1754B1B6827
:1022700003F48073002BF0D07B68DB68012B06D160
:102280006F4B1B6A6E4A43F0010313622DE07B68BB
:10229000DB68002B0CD16A4B1B6A694A23F00103EF
:1022A0001362674B1B6A664A23F0040313621CE047
:1022B0007B68DB68052B0CD1614B1B6A604A43F0DD
:1022C000040313625E4B1B6A5D4A43F00103136211
:1022D0000BE05B4B1B6A5A4A23F001031362584B15
:1022E0001B6A574A23F0040313627B68DB68002BE8
:1022F00015D0FFF77FFB38610AE0FFF77BFB024652
:102300003B69D31A41F28832934201D90323B1E0E9
:102310004B4B1B6A03F00203002BEED014E0FFF7D7
:1023200069FB38610AE0FFF765FB02463B69D31A97
:1023300041F28832934201D903239BE0404B1B6A50
:1023400003F00203002BEED1FB7D012B05D13C4BAA
:10235000DB693B4A23F08053D3617B68DB69002B48
:1023600000F08780364B5B6803F00C03082B61D0CC
:102370007B68DB69022B46D1334B00221A60FFF7E2
:1023800039FB386108E0FFF735FB02463B69D31A99
:10239000022B01D903236DE0294B1B6803F0007366
:1023A000002BF0D17B681B6AB3F5803F08D1244B2A
:1023B0005B6823F400327B689B68214913434B60C0
:1023C0001F4B5B6823F474127B68196A7B685B6A35
:1023D0000B431B4913434B601B4B01221A60FFF751
:1023E00009FB386108E0FFF705FB02463B69D31A99
:1023F000022B01D903233DE0114B1B6803F000734E
:10240000002BF0D035E0104B00221A60FFF7F2FAF3
:10241000386108E0FFF7EEFA02463B69D31A022B57
:1024200001D9032326E0064B1B6803F00073002B41
:10243000F0D11EE07B68DB69012B07D1012319E095
:102440000010024000700040600042420B4B5B688D
:10245000FB60FB6803F480327B681B6A9A4206D1FA
:10246000FB6803F470127B685B6A9A4201D0012317
:1024700000E0002318461837BD4680BD001002401A
:1024800080B584B000AF786039607B68002B01D1E3
:102490000123D0E06A4B1B6803F007033A689A42B5
:1024A00010D9674B1B6823F0070265493B6813434B
:1024B0000B60634B1B6803F007033A689A4201D034
:1024C0000123B8E07B681B6803F00203002B20D0D7
:1024D0007B681B6803F00403002B05D0594B5B6835
:1024E000584A43F4E06353607B681B6803F00803B9
:1024F000002B05D0534B5B68524A43F46053536042
:10250000504B5B6823F0F0027B689B684D49134396
:102510004B607B681B6803F00103002B40D07B6895
:102520005B68012B07D1474B1B6803F40033002B7A
:1025300015D101237FE07B685B68022B07D1414BFB
:102540001B6803F00073002B09D1012373E03D4B9E
:102550001B6803F00203002B01D101236BE0394B10
:102560005B6823F003027B685B68364913434B606A
:10257000FFF740FAF8600AE0FFF73CFA0246FB6812
:10258000D31A41F28832934201D9032353E02D4BF1
:102590005B6803F00C027B685B689B009A42EBD19E
:1025A000274B1B6803F007033A689A4210D2244B6A
:1025B0001B6823F0070222493B6813430B60204B42
:1025C0001B6803F007033A689A4201D0012332E006
:1025D0007B681B6803F00403002B08D0194B5B6871
:1025E00023F4E0627B68DB68164913434B607B6829
:1025F0001B6803F00803002B09D0124B5B6823F41F
:1026000060527B681B69DB000E4913434B6000F08E
:1026100021F802460B4B5B681B0903F00F030A49C4
:10262000CB5C22FA03F3094A1360094B1B68184676
:10263000FFF79EF9002318461037BD4680BD00BF46
:102640000020024000100240983D00084C0000208D
:102650005000002080B487B000AF0023FB6000234F
:10266000BB6000237B6100237B6000233B611E4B2A
:102670005B68FB60FB6803F00C03042B02D0082BA3
:1026800003D027E0194B3B6127E0FB689B0C03F06C
:102690000F03174AD35C7B60FB6803F48033002B85
:1026A00010D0114B5B685B0C03F00103114AD35C43
:1026B000BB607B680D4A03FB02F2BB68B2FBF3F31D
:1026C0007B6104E07B680C4A02FB03F37B617B695E
:1026D0003B6102E0054B3B6100BF3B6918461C377C
:1026E000BD4680BC704700BF0010024000127A0057
:1026F000A83D0008B83D000800093D0080B485B041
:1027000000AF78600A4B1B680A4AA2FB03235B0AEE
:102710007A6802FB03F3FB6000BFFB685A1EFA6095
:10272000002BF9D100BF00BF1437BD4680BC7047F5
:102730004C000020D34D621080B582B000AF7860AD
:102740007B68002B01D1012341E07B6893F83D3089
:10275000DBB2002B06D17B68002283F83C2078682E
:10276000FFF76EF87B68022283F83D207B681A68C9
:102770007B6804331946104600F06EFA7B6801222C
:1027800083F846207B68012283F83E207B68012283
:1027900083F83F207B68012283F840207B68012278
:1027A00083F841207B68012283F842207B68012264
:1027B00083F843207B68012283F844207B68012250
:1027C00083F845207B68012283F83D2000231846CA
:1027D0000837BD4680BD000080B485B000AF78608A
:1027E0007B6893F83D30DBB2012B01D0012335E04B
:1027F0007B68022283F83D207B681B68DA687B686F
:102800001B6842F00102DA607B681B68164A93423B
:1028100009D07B681B68B3F1804F04D07B681B68CC
:10282000124A934211D17B681B689B6803F007032F
:10283000FB60FB68062B10D07B681B681A687B68FE
:102840001B6842F001021A6007E07B681B681A6887
:102850007B681B6842F001021A6000231846143797
:10286000BD4680BC704700BF002C01400004004002
:1028700080B582B000AF78607B681B681B6903F08D
:102880000203022B22D17B681B68DB6803F0020382
:10289000022B1BD17B681B686FF002021A617B68F8
:1028A00001221A777B681B689B6903F00303002BE6
:1028B00003D0786800F0B4F905E0786800F0A7F973
:1028C000786800F0B6F97B6800221A777B681B688D
:1028D0001B6903F00403042B22D17B681B68DB68AF
:1028E00003F00403042B1BD17B681B686FF0040208
:1028F0001A617B6802221A777B681B689B6903F464
:102900004073002B03D0786800F08AF905E07868FE
:1029100000F07DF9786800F08CF97B6800221A7766
:102920007B681B681B6903F00803082B22D17B68B6
:102930001B68DB6803F00803082B1BD17B681B684E
:102940006FF008021A617B6804221A777B681B68A3
:10295000DB6903F00303002B03D0786800F060F913
:1029600005E0786800F053F9786800F062F97B6858
:1029700000221A777B681B681B6903F01003102B79
:1029800022D17B681B68DB6803F01003102B1BD17E
:102990007B681B686FF010021A617B6808221A7747
:1029A0007B681B68DB6903F44073002B03D07868F5
:1029B00000F036F905E0786800F029F9786800F051
:1029C00038F97B6800221A777B681B681B6903F063
:1029D0000103012B0ED17B681B68DB6803F0010348
:1029E000012B07D17B681B686FF001021A617868C0
:1029F000FEF704FA7B681B681B6903F08003802BD9
:102A00000ED17B681B68DB6803F08003802B07D145
:102A10007B681B686FF080021A61786800F06BFABF
:102A20007B681B681B6903F04003402B0ED17B6859
:102A30001B68DB6803F04003402B07D17B681B68F1
:102A40006FF040021A61786800F0FCF87B681B6840
:102A50001B6903F02003202B0ED17B681B68DB6809
:102A600003F02003202B07D17B681B686FF0200246
:102A70001A61786800F036FA00BF0837BD4680BD9D
:102A800080B584B000AF786039600023FB737B6849
:102A900093F83C30012B01D10223B4E07B68012282
:102AA00083F83C207B68022283F83D207B681B680A
:102AB0009B68BB60BB6823F07703BB60BB6823F4F3
:102AC0007F43BB607B681B68BA689A603B681B6881
:102AD000B3F5005F3ED0B3F5005F00F28780B3F539
:102AE000805F00F08680B3F5805F7FD8702B1AD0AE
:102AF000702B7BD8602B50D0602B77D8502B3CD0DC
:102B0000502B73D8402B58D0402B6FD8302B64D02B
:102B1000302B6BD8202B60D0202B67D8002B5CD0BB
:102B2000102B5AD062E07B6818683B6899683B6854
:102B30005A683B68DB6800F05EF97B681B689B683D
:102B4000BB60BB6843F07703BB607B681B68BA68F7
:102B50009A604FE07B6818683B6899683B685A68E0
:102B60003B68DB6800F047F97B681B689A687B6804
:102B70001B6842F480429A603CE07B6818683B68BE
:102B800059683B68DB681A4600F0BEF87B681B6832
:102B90005021184600F015F92CE07B6818683B6856
:102BA00059683B68DB681A4600F0DCF87B681B68F4
:102BB0006021184600F005F91CE07B6818683B6846
:102BC00059683B68DB681A4600F09EF87B681B6812
:102BD0004021184600F0F5F80CE07B681A683B6865
:102BE0001B681946104600F0ECF803E00123FB7364
:102BF00000E000BF7B68012283F83D207B68002253
:102C000083F83C20FB7B18461037BD4680BD80B45E
:102C100083B000AF786000BF0C37BD4680BC704702
:102C200080B483B000AF786000BF0C37BD4680BC75
:102C3000704780B483B000AF786000BF0C37BD46EA
:102C400080BC704780B483B000AF786000BF0C37A1
:102C5000BD4680BC7047000080B485B000AF78608E
:102C600039607B681B68FB607B68254A934207D00C
:102C70007B68B3F1804F03D07B68224A934208D12E
:102C8000FB6823F07003FB603B685B68FA681343E2
:102C9000FB607B681A4A934207D07B68B3F1804F90
:102CA00003D07B68174A934208D1FB6823F4407332
:102CB000FB603B68DB68FA681343FB60FB6823F04A
:102CC00080023B685B691343FB607B68FA681A60AB
:102CD0003B689A687B68DA623B681A687B689A622C
:102CE0007B68074A934203D13B681A697B681A6381
:102CF0007B6801225A6100BF1437BD4680BC704713
:102D0000002C01400004004080B487B000AFF860A0
:102D1000B9607A60FB681B6A7B61FB681B6A23F001
:102D20000102FB681A62FB689B693B613B6923F007
:102D3000F0033B617B681B013A6913433B617B698C
:102D400023F00A037B617A69BB6813437B61FB68EC
:102D50003A699A61FB687A691A6200BF1C37BD46FE
:102D600080BC704780B487B000AFF860B9607A600B
:102D7000FB681B6A7B61FB681B6A23F01002FB681F
:102D80001A62FB689B693B613B6923F470433B61BA
:102D90007B681B033A6913433B617B6923F0A00303
:102DA0007B61BB681B017A6913437B61FB683A69ED
:102DB0009A61FB687A691A6200BF1C37BD4680BC05
:102DC000704780B485B000AF786039607B689B68DD
:102DD000FB60FB6823F07003FB603A68FB681343F9
:102DE00043F00703FB607B68FA689A6000BF143702
:102DF000BD4680BC704780B487B000AFF860B96052
:102E00007A603B60FB689B687B617B6923F47F434E
:102E10007B613B681A027B681A43BB6813437A697B
:102E200013437B61FB687A699A6000BF1C37BD461B
:102E300080BC704780B485B000AF786039607B6833
:102E400093F83C30012B01D1022341E07B68012241
:102E500083F83C207B68022283F83D207B681B6856
:102E60005B68FB607B681B689B68BB60FB6823F04A
:102E70007003FB603B681B68FA681343FB607B6868
:102E80001B68FA685A607B681B68144A934209D031
:102E90007B681B68B3F1804F04D07B681B68104AC5
:102EA00093420CD1BB6823F08003BB603B685B6836
:102EB000BA681343BB607B681B68BA689A607B681A
:102EC000012283F83D207B68002283F83C20002308
:102ED00018461437BD4680BC704700BF002C014027
:102EE0000004004080B483B000AF786000BF0C37AE
:102EF000BD4680BC704780B483B000AF786000BF2F
:102F00000C37BD4680BC704703460244934200D153
:102F1000704703F8011BF9E7014B1868704700BFC1
:102F2000A400002070B500260C4D0D4C641BA410AD
:102F3000A64209D100F022FF00260A4D0A4C641B6C
:102F4000A410A64205D170BD55F8043B9847013640
:102F5000EEE755F8043B98470136F2E7F03D0008EC
:102F6000F03D0008F03D0008F43D00082DE9F8436D
:102F700014461D468046894600F066F822460646FD
:102F80000F462B4620462946FDF738FDC8BB0022D8
:102F9000002340464946FDF7FFFCB8B1002200235C
:102FA00020462946FDF7F8FC002841D12046294655
:102FB00000F044F828B30022002320462946FDF7FC
:102FC000F5FCF0B1FFF7A8FF222319E0304639469F
:102FD00000F034F8C8B94046494600F02FF8A0B1D7
:102FE0002046294600F02AF878B132463B46304662
:102FF0003946FDF703FD0028E4D0FFF78DFF2123BC
:10300000036030463946BDE8F8830022002330468D
:103010003946FDF7C1FC0028F3D04046494600F090
:103020000DF80028EDD02046294600F007F8C8E743
:103030000026014FE5E700BF0000F03F41F00040EF
:1030400000F58010C00F70472DE9F04F93B0CDE927
:103050000223DDE9022727F00046894656EA0201ED
:10306000804611D1031889F4002252419942824BC3
:10307000934180F0BA84DDE9022340464946FDF7DA
:103080006DF883468C466FE07C4B29F000449C42EF
:103090004D46824606DC01D10028ECD19E4201DC7F
:1030A0000FD172B105F1404505F5801555EA0A05C5
:1030B000E1D1DDE90232DB1882F4002252419D4267
:1030C000D5E7002D39DA6E4B9E4252DCA3F15473E2
:1030D0009E4240F39D843315A3F2FF33142B0FDD82
:1030E000C3F1340322FA03F101FA03F3934240F0EF
:1030F0008F8401F00101C1F10203009382B15DE010
:10310000002A59D1C3F1140346FA03F101FA03F37B
:10311000B34240F07A8401F00101C1F1020300934F
:10312000584B9E4232D1002F80F26B8442464B4670
:1031300000205449FDF7F2FAA3E700230093002A88
:103140003CD14E4B9E42EBD104F1404303F580133A
:1031500053EA0A0300F049844B4B9C420BDD002FDD
:10316000C0F24984DDE902BC5846614613B0BDE8AF
:10317000F08F0223E2E7002F4FF0000B4FF0000C1E
:10318000F2DADDE902B303F1004CEDE7B7F1804F6D
:1031900006D142464B4640464946FDF795F970E751
:1031A0003A4B9F420AD1002D08DB4046494613B0F6
:1031B000BDE8F04F00F00ABD0023009340464946A9
:1031C00000F058FC83468C46BAF1000F28D124B198
:1031D0002C4B25F040429A4222D1002F07DA5A4662
:1031E000634600202749FDF799FA83468C46002D57
:1031F000BADA009B04F1404404F580141C4308D162
:103200005A46634658466146FCF7A6FF02460B46FF
:1032100090E7009B012BA7D10CF100439C46A3E74C
:10322000EB0F013B0C930C9A009B134304D14246D5
:103230004B4640464946E7E7154B9E4240F3F68031
:1032400003F104739E42104B09DD9C420CDC002FFD
:103250000CDA002013B0BDE8F04F00F0B2BC9C4285
:10326000F5DB084B9C4215DD002FF2DC002013B08B
:10327000BDE8F04F00F0A0BC0000F0FF0000F07FC0
:10328000FFFF3F430000F03FFFFFEF3F0000E03F44
:103290000000E0416146002258465F4BFCF75CFFAE
:1032A00055A3D3E9002304460D46FDF70DF954A3B9
:1032B000D3E9002306460F4620462946FDF704F9C8
:1032C000002282468B4620462946544BFDF7FCF8E7
:1032D00002460B464CA1D1E90001FCF73DFF224616
:1032E0002B46FDF7F1F802460B4600204C49FCF74F
:1032F00033FF22462B468046894620462946FDF765
:10330000E3F802460B4640464946FDF7DDF840A388
:10331000D3E90023FDF7D8F802460B46504659463C
:10332000FCF71AFF02460B4604460D463046394666
:10333000FCF714FF002032463B4682468B46FCF7E2
:103340000BFF02460B4620462946FCF705FFDDE948
:103350000267009B0C9A013B13434FF000064FF0AD
:1033600000020CBF2F4B2C4B04460D46DDE9020139
:10337000CDE9002332463B46FCF7EEFE52465B4663
:10338000FDF7A2F8DDE9022380468946204629465A
:10339000FDF79AF802460B4640464946FCF7DEFE2A
:1033A00032463B468046894650465946FDF78CF8E2
:1033B00004460D460B46024649464046CDE90245C5
:1033C000FCF7CCFE184B824699420F460E4640F35E
:1033D000E78201F13F4303F5E003034300F0E2819C
:1033E000DDE9000100220023FDF7E0FA003818BFF4
:1033F00001202FE7AFF30080000000604715F73F82
:1034000044DF5DF80BAE543E555555555555D53FE7
:10341000FE822B654715F73F0000F03F0000D03FCC
:103420000000E03F0000F0BFFFFF8F40D44B0022C0
:103430002B4043B958466146D24BFDF745F86FF033
:10344000340283460C462315A3F2FF3313440B9337
:10345000CD4BC4F3130444F07F559C4245F4401512
:1034600008DDCA4B9C4240F364810B9BA5F5801597
:1034700001330B930026F3000D93C54B584603EB25
:10348000C603D3E9003429461A46CDE90834234659
:10349000FCF762FEDA462B465246CDE90E01DDE925
:1034A0000801FCF75BFE02460B460020B949FDF718
:1034B00035F902460B46CDE91001DDE90E01FDF7B5
:1034C00003F8CDE90601DDE90634CDE90434002333
:1034D0000022AB466D1045F00055049305F500251C
:1034E000DDE9048905EB86434046494614461D46FE
:1034F000FCF7EAFF02460B46DDE90E01FCF72CFE65
:10350000DDE9082306460F4620462946FCF724FE3F
:1035100002460B4650465946FCF71EFE42464B46B5
:10352000FCF7D2FF02460B4630463946FCF714FE44
:10353000DDE91023FCF7C8FFDDE9062382468B4650
:1035400010461946FCF7C0FF7BA3D3E900230446CD
:103550000D46FCF7B9FF7AA3D3E90023FCF7FEFD83
:1035600022462B46FCF7B0FF77A3D3E90023FCF7F4
:10357000F5FD22462B46FCF7A7FF75A3D3E90023F0
:10358000FCF7ECFD22462B46FCF79EFF72A3D3E925
:103590000023FCF7E3FD22462B46FCF795FF70A3C2
:1035A000D3E90023FCF7DAFD224606460F462B46F8
:1035B00020462946FCF788FF02460B46304639462E
:1035C000FCF782FF04460D46DDE9060142464B4604
:1035D000FCF7C4FD52465B46FCF776FF22462B46BD
:1035E000FCF7BCFD424606460F464B464046494660
:1035F000FCF76AFF02460B46CDE908230022664B22
:10360000FCF7ACFD32463B46FCF7A8FD00240D4616
:1036100022460B4640464946FCF756FF00228046AC
:103620008946204629465C4BFCF796FDDDE90823D8
:10363000FCF792FD02460B4630463946FCF78CFDFE
:10364000DDE90623FCF740FF224606460F462B46DF
:1036500050465946FCF738FF02460B46304639467D
:10366000FCF77CFD002406460F4602460B4640460A
:103670004946FCF773FD3CA3D3E9002320460D46E1
:10368000FCF722FF42464B46CDE90601204629467B
:10369000FCF762FD02460B4630463946FCF75CFDFE
:1036A00033A3D3E90023FCF70FFF33A3D3E90023AF
:1036B00006460F4620462946FCF706FF02460B4603
:1036C00030463946FCF74AFD0D9A344B1344D3E992
:1036D0000023FCF743FD80460B988946FCF78AFEE1
:1036E00004460D46DDE906010D9A2D4B1344D3E93E
:1036F000006742464B46FCF731FD32463B46FCF73D
:103700002DFD22462B46FCF729FD002022462B46A4
:1037100082468B46FCF720FD32463B46FCF71CFDFB
:10372000DDE90623FCF718FD02460B4640464946F4
:103730000BE601269FE600BFEF4E454A287ECA3FB2
:1037400065DBC9934A86CD3F01411DA96074D13F15
:103750004D268F515555D53FFFAB6FDBB66DDB3F27
:10376000033333333333E33F000000E009C7EE3F58
:10377000FD033ADC09C7EE3FF5015B14E02F3EBEC6
:103780000000F07F000040438E98030079B60B00E4
:10379000C03D00080000F03F00000840E03D000888
:1037A000D03D00089CA3D3E9002340464946FCF7DE
:1037B000D5FC2246CDE904012B4650463946FCF79C
:1037C000CBFC02460B46DDE90401FDF70DF90028AC
:1037D0007FF406AEA24A26F00043934240F30081F4
:1037E0004FF4801A1B15A3F2FE334AFA03FAB244CF
:1037F000CAF30A519B48A1F2FF31084100EA0A03CB
:10380000CAF3130AC1F114014AF4801A4AFA01FA00
:10381000002E4FF0000220462946B8BFCAF1000A28
:10382000FCF79AFCCDE90201DDE9020100244246E1
:103830004B46FCF793FC7AA3D3E9002320460D46C0
:10384000FCF742FEDDE9022306460F4620462946E4
:10385000FCF782FC02460B4640464946FCF77CFCDE
:1038600071A3D3E90023FCF72FFE71A3D3E9002352
:103870008046894620462946FCF726FE02460B462E
:1038800040464946FCF76AFC04460D4602460B4694
:1038900030463946FCF762FC32463B468046894654
:1038A000FCF75AFC02460B4620462946FCF754FC1E
:1038B000424606460F464B4640464946FCF704FE44
:1038C0005DA3D3E9002304460D46FCF7FDFD5CA390
:1038D000D3E90023FCF740FC22462B46FCF7F4FD1D
:1038E00059A3D3E90023FCF739FC22462B46FCF709
:1038F000EBFD57A3D3E90023FCF72EFC22462B4611
:10390000FCF7E2FD54A3D3E90023FCF727FC224691
:103910002B46FCF7D9FD02460B4640464946FCF7CC
:103920001BFC04460D4602460B4640464946FCF742
:10393000CBFD0022CDE902014FF08043204629460D
:10394000FCF70AFC02460B46DDE90201FCF7E6FE45
:10395000324604460D463B4640464946FCF7B4FD18
:1039600032463B46FCF7FAFB02460B462046294608
:10397000FCF7F2FB42464B46FCF7EEFB02460B46D9
:1039800000203949FCF7E8FB01EB0A54B4F5801F2D
:1039900029DA524600F074F8DDE90023FFF7FDBB99
:1039A000324B21F000479F427FF714AF304B0B445E
:1039B000034309D0DDE9000100220023FCF7F6FFF4
:1039C000003818BF012052E422462B46FCF7C4FB06
:1039D00042464B46FCF7FEFF00283FF4FBAEE9E70A
:1039E0004FF0000A20E72146D6E74FF0000BDFF842
:1039F00078C0FFF7B9BB4FF0000B4FF0000CFFF79A
:103A0000B3BB40464946FFF73CBB0092FFF788BB7B
:103A10000023FFF772BB00BFFE822B654715973C62
:103A200000000000432EE63FEF39FAFE422EE63F4B
:103A3000396CA80C615C20BED0A4BE726937663EAA
:103A4000F16BD2C541BDBB3E2CDE25AF6A56113F9E
:103A500093BDBE166CC1663F3E5555555555C53F85
:103A60000000E03F0000F0FF0000F03FFFCB90407F
:103A700000346F3F21F000431946704700000000FA
:103A8000F8B51646C1F30A5204460D460B4692B9E4
:103A900021F0004303433CD0314B0022FCF714FDDE
:103AA000304B04469E420D460FDA29A3D3E900238A
:103AB000FCF70AFD06E040F2FF77BA4209D1024660
:103AC000FCF74CFB04460D4623E00B46C1F30A52BB
:103AD000363A4CF250318E420EDD1FA3D3E900235B
:103AE00005F0004444F0FC4141F45F1141F41051F1
:103AF0001D4841F03C01DBE740F2FE7132448A424E
:103B0000EBDC002A08DD23F0FF4323F4E00343EA63
:103B1000025520462946F8BD12F1350F0CDA0CA3E8
:103B2000D3E9002305F0004444F0D27141F4B731E9
:103B30000E4841F01F01BBE723F0FF43363223F468
:103B4000E00343EA0255204629460022084BAFE72E
:103B500059F3F8C21F6EA5019C7500883CE4377EBE
:103B600000005043B03CFFFF9C75008859F3F8C239
:103B70000000903C70B504460D461646FFF7CCF9A0
:103B800029460660204670BD37B515461C4680B1F3
:103B9000104603F10041CDE90001DDE9002328468C
:103BA0002146FCF791FC222203B0BDE83040FFF72C
:103BB000E1BF10461946EEE700224FF08053FFF7B1
:103BC000E3BF00224FF0E043FFF7DEBFDFF8A0C104
:103BD0002DE9F84F3CEA010C0B4606460D460A4615
:103BE00004460ED10246FCF76FFC02460B463046F7
:103BF0002946FCF7B3FA06460D4630462946BDE88D
:103C0000F88F00290DDC21F0004C5CEA000CF4D0A8
:103C100039B10246FCF7A0FA02460B46FCF77EFDDE
:103C2000E9E7121500F089800025C3F31303A2F21F
:103C3000FF3643F48013D2075CBF5B0003EBD47301
:103C40004FEA430358BF640003EBD47362001620AD
:103C500029464FF4001476100F199F42DEBFDB1B7C
:103C600039192D195B00013803EBD2734FEA540464
:103C70004FEA4202F0D1044620274FF0004C8B421D
:103C80000CEB000E02DC13D1964511D8BEF1000FEB
:103C90000EEB0C0056DA002854DB01F101085B1A28
:103CA0004146964588BF03F1FF33A2EB0E02644400
:103CB0005B00013F03EBD2734FEA5C0C4FEA420218
:103CC000DDD113431BD0DFF8ACA0DFF8ACB0DAE9EC
:103CD0000001DBE90023FCF73FFADAE9008902463C
:103CE0000B4640464946FCF76BFE40B1DAE900015D
:103CF000DBE90023B4F1FF3F26D13C4601356B10D0
:103D0000640803F17F53EA0703F5001348BF44F04A
:103D10000044204603EB06516DE7E30A15396405BC
:103D2000002BFAD0D8020AD5C2F1200024FA00F004
:103D3000551E944003434A1B76E71146F0E75B00AB
:103D40000132EFE78846AAE7FCF708FADAE90089CA
:103D500002460B4640464946FCF728FE20B1A11C0E
:103D600008BF01350234CAE7013424F00104C6E774
:103D70000000F07FA8000020B0000020F8B500BFD0
:103D8000F8BC08BC9E467047F8B500BFF8BC08BC3C
:043D90009E46704794
:103D980000000000000000000102030406070809F3
:103DA80002030405060708090A0B0C0D0E0F101074
:103DB8000102000000000000000000000000F03FC9
:103DC800000000000000F83F0000000000000000B4
:103DD8000000004003B8E23F0000000000000000BF
:083DE80006D0CF43EBFD4C3E79
:043DF0003501000891
:043DF40011010008B1
:103DF80001000200040008001000200040008000BC
:103E0800BF008600DB00CF00E600ED00FD00870064
:103E1800FF00EF000000000040007900240030009F
:103E2800190012000200780000001000FF000000D6
:103E38000001000800020010000400200024F40023
:103E480010000000010000000000000068010020D0
:103E5800D00100203802002000000000000000000F
:103E6800000000000000000000000000000000004A
:103E7800000000000000000000000000000000003A
:103E8800000000000000000000000000000000002A
:103E98000000000058000020000000000000F03F73
:083EA80059F3F8C21F6EA501D9
:04000005080018F9DE
:00000001FF
